{
	"contractName": "SelfKeyToken",
	"abi": [
		{
			"constant": true,
			"inputs": [],
			"name": "mintingFinished",
			"outputs": [
				{
					"name": "",
					"type": "bool"
				}
			],
			"payable": false,
			"stateMutability": "view",
			"type": "function"
		},
		{
			"constant": true,
			"inputs": [],
			"name": "name",
			"outputs": [
				{
					"name": "",
					"type": "string"
				}
			],
			"payable": false,
			"stateMutability": "view",
			"type": "function"
		},
		{
			"constant": false,
			"inputs": [
				{
					"name": "_spender",
					"type": "address"
				},
				{
					"name": "_value",
					"type": "uint256"
				}
			],
			"name": "approve",
			"outputs": [
				{
					"name": "",
					"type": "bool"
				}
			],
			"payable": false,
			"stateMutability": "nonpayable",
			"type": "function"
		},
		{
			"constant": true,
			"inputs": [],
			"name": "totalSupply",
			"outputs": [
				{
					"name": "",
					"type": "uint256"
				}
			],
			"payable": false,
			"stateMutability": "view",
			"type": "function"
		},
		{
			"constant": false,
			"inputs": [
				{
					"name": "_from",
					"type": "address"
				},
				{
					"name": "_to",
					"type": "address"
				},
				{
					"name": "_value",
					"type": "uint256"
				}
			],
			"name": "transferFrom",
			"outputs": [
				{
					"name": "",
					"type": "bool"
				}
			],
			"payable": false,
			"stateMutability": "nonpayable",
			"type": "function"
		},
		{
			"constant": true,
			"inputs": [],
			"name": "decimals",
			"outputs": [
				{
					"name": "",
					"type": "uint256"
				}
			],
			"payable": false,
			"stateMutability": "view",
			"type": "function"
		},
		{
			"constant": true,
			"inputs": [],
			"name": "cap",
			"outputs": [
				{
					"name": "",
					"type": "uint256"
				}
			],
			"payable": false,
			"stateMutability": "view",
			"type": "function"
		},
		{
			"constant": false,
			"inputs": [
				{
					"name": "_to",
					"type": "address"
				},
				{
					"name": "_value",
					"type": "uint256"
				}
			],
			"name": "mint",
			"outputs": [
				{
					"name": "",
					"type": "bool"
				}
			],
			"payable": false,
			"stateMutability": "nonpayable",
			"type": "function"
		},
		{
			"constant": false,
			"inputs": [
				{
					"name": "_value",
					"type": "uint256"
				}
			],
			"name": "burn",
			"outputs": [],
			"payable": false,
			"stateMutability": "nonpayable",
			"type": "function"
		},
		{
			"constant": false,
			"inputs": [
				{
					"name": "_spender",
					"type": "address"
				},
				{
					"name": "_subtractedValue",
					"type": "uint256"
				}
			],
			"name": "decreaseApproval",
			"outputs": [
				{
					"name": "",
					"type": "bool"
				}
			],
			"payable": false,
			"stateMutability": "nonpayable",
			"type": "function"
		},
		{
			"constant": true,
			"inputs": [
				{
					"name": "_owner",
					"type": "address"
				}
			],
			"name": "balanceOf",
			"outputs": [
				{
					"name": "balance",
					"type": "uint256"
				}
			],
			"payable": false,
			"stateMutability": "view",
			"type": "function"
		},
		{
			"constant": false,
			"inputs": [],
			"name": "finishMinting",
			"outputs": [
				{
					"name": "",
					"type": "bool"
				}
			],
			"payable": false,
			"stateMutability": "nonpayable",
			"type": "function"
		},
		{
			"constant": true,
			"inputs": [],
			"name": "owner",
			"outputs": [
				{
					"name": "",
					"type": "address"
				}
			],
			"payable": false,
			"stateMutability": "view",
			"type": "function"
		},
		{
			"constant": true,
			"inputs": [],
			"name": "symbol",
			"outputs": [
				{
					"name": "",
					"type": "bytes32"
				}
			],
			"payable": false,
			"stateMutability": "view",
			"type": "function"
		},
		{
			"constant": false,
			"inputs": [
				{
					"name": "_to",
					"type": "address"
				},
				{
					"name": "_value",
					"type": "uint256"
				}
			],
			"name": "transfer",
			"outputs": [
				{
					"name": "",
					"type": "bool"
				}
			],
			"payable": false,
			"stateMutability": "nonpayable",
			"type": "function"
		},
		{
			"constant": false,
			"inputs": [],
			"name": "enableTransfers",
			"outputs": [],
			"payable": false,
			"stateMutability": "nonpayable",
			"type": "function"
		},
		{
			"constant": false,
			"inputs": [
				{
					"name": "_spender",
					"type": "address"
				},
				{
					"name": "_addedValue",
					"type": "uint256"
				}
			],
			"name": "increaseApproval",
			"outputs": [
				{
					"name": "",
					"type": "bool"
				}
			],
			"payable": false,
			"stateMutability": "nonpayable",
			"type": "function"
		},
		{
			"constant": true,
			"inputs": [
				{
					"name": "_owner",
					"type": "address"
				},
				{
					"name": "_spender",
					"type": "address"
				}
			],
			"name": "allowance",
			"outputs": [
				{
					"name": "",
					"type": "uint256"
				}
			],
			"payable": false,
			"stateMutability": "view",
			"type": "function"
		},
		{
			"constant": false,
			"inputs": [
				{
					"name": "newOwner",
					"type": "address"
				}
			],
			"name": "transferOwnership",
			"outputs": [],
			"payable": false,
			"stateMutability": "nonpayable",
			"type": "function"
		},
		{
			"inputs": [
				{
					"name": "_cap",
					"type": "uint256"
				}
			],
			"payable": false,
			"stateMutability": "nonpayable",
			"type": "constructor"
		},
		{
			"anonymous": false,
			"inputs": [
				{
					"indexed": true,
					"name": "burner",
					"type": "address"
				},
				{
					"indexed": false,
					"name": "value",
					"type": "uint256"
				}
			],
			"name": "Burned",
			"type": "event"
		},
		{
			"anonymous": false,
			"inputs": [
				{
					"indexed": true,
					"name": "to",
					"type": "address"
				},
				{
					"indexed": false,
					"name": "amount",
					"type": "uint256"
				}
			],
			"name": "Mint",
			"type": "event"
		},
		{
			"anonymous": false,
			"inputs": [],
			"name": "MintFinished",
			"type": "event"
		},
		{
			"anonymous": false,
			"inputs": [
				{
					"indexed": true,
					"name": "previousOwner",
					"type": "address"
				},
				{
					"indexed": true,
					"name": "newOwner",
					"type": "address"
				}
			],
			"name": "OwnershipTransferred",
			"type": "event"
		},
		{
			"anonymous": false,
			"inputs": [
				{
					"indexed": true,
					"name": "owner",
					"type": "address"
				},
				{
					"indexed": true,
					"name": "spender",
					"type": "address"
				},
				{
					"indexed": false,
					"name": "value",
					"type": "uint256"
				}
			],
			"name": "Approval",
			"type": "event"
		},
		{
			"anonymous": false,
			"inputs": [
				{
					"indexed": true,
					"name": "from",
					"type": "address"
				},
				{
					"indexed": true,
					"name": "to",
					"type": "address"
				},
				{
					"indexed": false,
					"name": "value",
					"type": "uint256"
				}
			],
			"name": "Transfer",
			"type": "event"
		}
	],
	"bytecode": "0x60606040526003805460a060020a60ff02191690556005805460ff19169055341561002957600080fd5b604051602080610ded8339810160405280805160038054600160a060020a03191633600160a060020a031617905560045550610d8190508061006c6000396000f3006060604052600436106101065763ffffffff7c010000000000000000000000000000000000000000000000000000000060003504166305d2035b811461010b57806306fdde0314610132578063095ea7b3146101bc57806318160ddd146101de57806323b872dd14610203578063313ce5671461022b578063355274ea1461023e57806340c10f191461025157806342966c6814610273578063661884631461028b57806370a08231146102ad5780637d64bcb4146102cc5780638da5cb5b146102df57806395d89b411461030e578063a9059cbb14610321578063af35c6c714610343578063d73dd62314610356578063dd62ed3e14610378578063f2fde38b1461039d575b600080fd5b341561011657600080fd5b61011e6103bc565b604051901515815260200160405180910390f35b341561013d57600080fd5b6101456103cc565b60405160208082528190810183818151815260200191508051906020019080838360005b83811015610181578082015183820152602001610169565b50505050905090810190601f1680156101ae5780820380516001836020036101000a031916815260200191505b509250505060405180910390f35b34156101c757600080fd5b61011e600160a060020a0360043516602435610403565b34156101e957600080fd5b6101f161046f565b60405190815260200160405180910390f35b341561020e57600080fd5b61011e600160a060020a0360043581169060243516604435610475565b341561023657600080fd5b6101f16104ba565b341561024957600080fd5b6101f16104bf565b341561025c57600080fd5b61011e600160a060020a03600435166024356104c5565b341561027e57600080fd5b61028960043561052c565b005b341561029657600080fd5b61011e600160a060020a03600435166024356105ed565b34156102b857600080fd5b6101f1600160a060020a03600435166106e7565b34156102d757600080fd5b61011e610702565b34156102ea57600080fd5b6102f261078d565b604051600160a060020a03909116815260200160405180910390f35b341561031957600080fd5b61014561079c565b341561032c57600080fd5b61011e600160a060020a03600435166024356107d3565b341561034e57600080fd5b610289610816565b341561036157600080fd5b61011e600160a060020a0360043516602435610840565b341561038357600080fd5b6101f1600160a060020a03600435811690602435166108e4565b34156103a857600080fd5b610289600160a060020a036004351661090f565b60035460a060020a900460ff1681565b60408051908101604052600781527f53656c664b657900000000000000000000000000000000000000000000000000602082015281565b600160a060020a03338116600081815260026020908152604080832094871680845294909152808220859055909291907f8c5be1e5ebec7d5bd14f71427d1e84f3dd0314c0f7b2291e5b200ac8c7c3b9259085905190815260200160405180910390a350600192915050565b60005481565b6005546000908490839060ff168061049a5750600354600160a060020a038381169116145b15156104a557600080fd5b6104b08686866109aa565b9695505050505050565b601281565b60045481565b60035460009033600160a060020a039081169116146104e357600080fd5b60035460a060020a900460ff16156104fa57600080fd5b600454600054610510908463ffffffff610b2c16565b111561051b57600080fd5b6105258383610b3b565b9392505050565b60035460009033600160a060020a0390811691161461054a57600080fd5b6000821161055757600080fd5b5033600160a060020a03811660009081526001602052604090205461057c9083610c48565b600160a060020a038216600090815260016020526040812091909155546105a9908363ffffffff610c4816565b600055600160a060020a0381167f696de425f79f4a40bc6d2122ca50507f0efbeabbff86a84871b7196ab8ea8df78360405190815260200160405180910390a25050565b600160a060020a0333811660009081526002602090815260408083209386168352929052908120548083111561064a57600160a060020a033381166000908152600260209081526040808320938816835292905290812055610681565b61065a818463ffffffff610c4816565b600160a060020a033381166000908152600260209081526040808320938916835292905220555b600160a060020a0333811660008181526002602090815260408083209489168084529490915290819020547f8c5be1e5ebec7d5bd14f71427d1e84f3dd0314c0f7b2291e5b200ac8c7c3b925915190815260200160405180910390a35060019392505050565b600160a060020a031660009081526001602052604090205490565b60035460009033600160a060020a0390811691161461072057600080fd5b60035460a060020a900460ff161561073757600080fd5b6003805474ff0000000000000000000000000000000000000000191660a060020a1790557fae5184fba832cb2b1f702aca6117b8d265eaf03ad33eb133f19dde0f5920fa0860405160405180910390a150600190565b600354600160a060020a031681565b60408051908101604052600381527f4b45590000000000000000000000000000000000000000000000000000000000602082015281565b6005546000903390839060ff16806107f85750600354600160a060020a038381169116145b151561080357600080fd5b61080d8585610c5a565b95945050505050565b60035433600160a060020a0390811691161461083157600080fd5b6005805460ff19166001179055565b600160a060020a033381166000908152600260209081526040808320938616835292905290812054610878908363ffffffff610b2c16565b600160a060020a0333811660008181526002602090815260408083209489168084529490915290819020849055919290917f8c5be1e5ebec7d5bd14f71427d1e84f3dd0314c0f7b2291e5b200ac8c7c3b92591905190815260200160405180910390a350600192915050565b600160a060020a03918216600090815260026020908152604080832093909416825291909152205490565b60035433600160a060020a0390811691161461092a57600080fd5b600160a060020a038116151561093f57600080fd5b600354600160a060020a0380831691167f8be0079c531659141344cd1fd0a4f28419497f9722a3daafe3b4186f6b6457e060405160405180910390a36003805473ffffffffffffffffffffffffffffffffffffffff1916600160a060020a0392909216919091179055565b6000600160a060020a03831615156109c157600080fd5b600160a060020a0384166000908152600160205260409020548211156109e657600080fd5b600160a060020a0380851660009081526002602090815260408083203390941683529290522054821115610a1957600080fd5b600160a060020a038416600090815260016020526040902054610a42908363ffffffff610c4816565b600160a060020a038086166000908152600160205260408082209390935590851681522054610a77908363ffffffff610b2c16565b600160a060020a03808516600090815260016020908152604080832094909455878316825260028152838220339093168252919091522054610abf908363ffffffff610c4816565b600160a060020a03808616600081815260026020908152604080832033861684529091529081902093909355908516917fddf252ad1be2c89b69c2b068fc378daa952ba7f163c4a11628f55a4df523b3ef9085905190815260200160405180910390a35060019392505050565b60008282018381101561052557fe5b60035460009033600160a060020a03908116911614610b5957600080fd5b60035460a060020a900460ff1615610b7057600080fd5b600054610b83908363ffffffff610b2c16565b6000908155600160a060020a038416815260016020526040902054610bae908363ffffffff610b2c16565b600160a060020a0384166000818152600160205260409081902092909255907f0f6798a560793a54c3bcfe86a93cde1e73087d944c0ea20544137d41213968859084905190815260200160405180910390a2600160a060020a03831660007fddf252ad1be2c89b69c2b068fc378daa952ba7f163c4a11628f55a4df523b3ef8460405190815260200160405180910390a350600192915050565b600082821115610c5457fe5b50900390565b6000600160a060020a0383161515610c7157600080fd5b600160a060020a033316600090815260016020526040902054821115610c9657600080fd5b600160a060020a033316600090815260016020526040902054610cbf908363ffffffff610c4816565b600160a060020a033381166000908152600160205260408082209390935590851681522054610cf4908363ffffffff610b2c16565b600160a060020a0380851660008181526001602052604090819020939093559133909116907fddf252ad1be2c89b69c2b068fc378daa952ba7f163c4a11628f55a4df523b3ef9085905190815260200160405180910390a3506001929150505600a165627a7a72305820a0db4a7417f51dac893a505484403c713964d24a776ca71d61c0b642f6760aae0029",
	"source": "pragma solidity ^0.4.18;\n\nimport 'zeppelin-solidity/contracts/token/MintableToken.sol';\nimport './SelfKeyCrowdsale.sol';\n\n\n/**\n * @title SelfKeyToken\n * @dev SelfKey Token implementation.\n */\ncontract SelfKeyToken is MintableToken {\n    string public constant name = 'SelfKey'; //solhint-disable-line const-name-snakecase\n    string public constant symbol = 'KEY'; //solhint-disable-line const-name-snakecase\n    uint256 public constant decimals = 18; //solhint-disable-line const-name-snakecase\n\n    uint256 public cap;\n    bool private transfersEnabled = false;\n\n    event Burned(address indexed burner, uint256 value);\n\n    /**\n     * @dev Only the contract owner can transfer without restrictions.\n     *      Regular holders need to wait until sale is finalized.\n     * @param _sender — The address sending the tokens\n     * @param _value — The number of tokens to send\n     */\n    modifier canTransfer(address _sender, uint256 _value) {\n        require(transfersEnabled || _sender == owner);\n        _;\n    }\n\n    /**\n     * @dev Constructor that sets a maximum supply cap.\n     * @param _cap — The maximum supply cap.\n     */\n    function SelfKeyToken(uint256 _cap) public {\n        cap = _cap;\n    }\n\n    /**\n     * @dev Overrides MintableToken.mint() for restricting supply under cap\n     * @param _to — The address to receive minted tokens\n     * @param _value — The number of tokens to mint\n     */\n    function mint(address _to, uint256 _value) public onlyOwner canMint returns (bool) {\n        require(totalSupply.add(_value) <= cap);\n        return super.mint(_to, _value);\n    }\n\n    /**\n     * @dev Checks modifier and allows transfer if tokens are not locked.\n     * @param _to — The address to receive tokens\n     * @param _value — The number of tokens to send\n     */\n    function transfer(address _to, uint256 _value)\n        public canTransfer(msg.sender, _value) returns (bool)\n    {\n        return super.transfer(_to, _value);\n    }\n\n    /**\n     * @dev Checks modifier and allows transfer if tokens are not locked.\n     * @param _from — The address to send tokens from\n     * @param _to — The address to receive tokens\n     * @param _value — The number of tokens to send\n     */\n    function transferFrom(address _from, address _to, uint256 _value)\n        public canTransfer(_from, _value) returns (bool)\n    {\n        return super.transferFrom(_from, _to, _value);\n    }\n\n    /**\n     * @dev Enables token transfers.\n     *      Called when the token sale is successfully finalized\n     */\n    function enableTransfers() public onlyOwner {\n        transfersEnabled = true;\n    }\n\n    /**\n    * @dev Burns a specific number of tokens.\n    * @param _value — The number of tokens to be burned.\n    */\n    function burn(uint256 _value) public onlyOwner {\n        require(_value > 0);\n\n        address burner = msg.sender;\n        balances[burner] = balances[burner].sub(_value);\n        totalSupply = totalSupply.sub(_value);\n        Burned(burner, _value);\n    }\n}\n",
	"sourcePath": "/home/carlos/work/dev/github/cbruguera/selfkey-token/contracts/SelfKeyToken.sol",
	"compiler": {
		"name": "solc",
		"version": "0.4.18+commit.9cf6e910.Emscripten.clang"
	},
	"schemaVersion": "1.0.1",
	"updatedAt": "2018-01-11T14:39:42.358Z"
}