{
	"contractName": "DIDLedger",
	"abi": [
		{
			"constant": true,
			"inputs": [
				{
					"name": "",
					"type": "bytes32"
				}
			],
			"name": "dids",
			"outputs": [
				{
					"name": "controller",
					"type": "address"
				},
				{
					"name": "created",
					"type": "uint256"
				},
				{
					"name": "updated",
					"type": "uint256"
				},
				{
					"name": "metadata",
					"type": "bytes32"
				}
			],
			"payable": false,
			"stateMutability": "view",
			"type": "function",
			"signature": "0x7e00c7b0"
		},
		{
			"constant": true,
			"inputs": [],
			"name": "nonce",
			"outputs": [
				{
					"name": "",
					"type": "uint256"
				}
			],
			"payable": false,
			"stateMutability": "view",
			"type": "function",
			"signature": "0xaffed0e0"
		},
		{
			"anonymous": false,
			"inputs": [
				{
					"indexed": false,
					"name": "id",
					"type": "bytes32"
				},
				{
					"indexed": false,
					"name": "metadata",
					"type": "bytes32"
				}
			],
			"name": "CreatedDID",
			"type": "event",
			"signature": "0xb6a24994a870a1375dc4e9089f3231a7b48c0cbfdb6f294043aac35a47a4cb25"
		},
		{
			"anonymous": false,
			"inputs": [
				{
					"indexed": false,
					"name": "id",
					"type": "bytes32"
				}
			],
			"name": "DeletedDID",
			"type": "event",
			"signature": "0x86466f9af23681b95d04bca6b25296160cfca9eec0a4dd275bc43e707f641562"
		},
		{
			"anonymous": false,
			"inputs": [
				{
					"indexed": false,
					"name": "id",
					"type": "bytes32"
				},
				{
					"indexed": false,
					"name": "metadata",
					"type": "bytes32"
				}
			],
			"name": "SetMetadata",
			"type": "event",
			"signature": "0x50de84553b95cc9ab1cd14ae270f3790552cb6bc6d238e49d890b3296a1eefae"
		},
		{
			"anonymous": false,
			"inputs": [
				{
					"indexed": false,
					"name": "id",
					"type": "bytes32"
				},
				{
					"indexed": false,
					"name": "newController",
					"type": "address"
				}
			],
			"name": "SetController",
			"type": "event",
			"signature": "0x81fcb69f59c044d5fe0e96b4fa4441219eea0609e09f9455ba7c649bf8c1d34c"
		},
		{
			"constant": false,
			"inputs": [
				{
					"name": "_metadata",
					"type": "bytes32"
				}
			],
			"name": "createDID",
			"outputs": [
				{
					"name": "",
					"type": "bytes32"
				}
			],
			"payable": false,
			"stateMutability": "nonpayable",
			"type": "function",
			"signature": "0x945ffb0e"
		},
		{
			"constant": false,
			"inputs": [
				{
					"name": "id",
					"type": "bytes32"
				},
				{
					"name": "_metadata",
					"type": "bytes32"
				}
			],
			"name": "setMetadata",
			"outputs": [],
			"payable": false,
			"stateMutability": "nonpayable",
			"type": "function",
			"signature": "0xd3525adf"
		},
		{
			"constant": false,
			"inputs": [
				{
					"name": "id",
					"type": "bytes32"
				}
			],
			"name": "deleteDID",
			"outputs": [],
			"payable": false,
			"stateMutability": "nonpayable",
			"type": "function",
			"signature": "0xf0123124"
		},
		{
			"constant": true,
			"inputs": [
				{
					"name": "id",
					"type": "bytes32"
				}
			],
			"name": "getController",
			"outputs": [
				{
					"name": "",
					"type": "address"
				}
			],
			"payable": false,
			"stateMutability": "view",
			"type": "function",
			"signature": "0x8f1815b2"
		},
		{
			"constant": false,
			"inputs": [
				{
					"name": "id",
					"type": "bytes32"
				},
				{
					"name": "newController",
					"type": "address"
				}
			],
			"name": "setController",
			"outputs": [],
			"payable": false,
			"stateMutability": "nonpayable",
			"type": "function",
			"signature": "0xd3156905"
		}
	],
	"bytecode": "0x6080604052600060015534801561001557600080fd5b50610905806100256000396000f3fe608060405234801561001057600080fd5b506004361061009a576000357c010000000000000000000000000000000000000000000000000000000090048063affed0e011610078578063affed0e0146101d2578063d3156905146101f0578063d3525adf1461023e578063f0123124146102765761009a565b80637e00c7b01461009f5780638f1815b214610122578063945ffb0e14610190575b600080fd5b6100cb600480360360208110156100b557600080fd5b81019080803590602001909291905050506102a4565b604051808573ffffffffffffffffffffffffffffffffffffffff1673ffffffffffffffffffffffffffffffffffffffff16815260200184815260200183815260200182815260200194505050505060405180910390f35b61014e6004803603602081101561013857600080fd5b81019080803590602001909291905050506102f4565b604051808273ffffffffffffffffffffffffffffffffffffffff1673ffffffffffffffffffffffffffffffffffffffff16815260200191505060405180910390f35b6101bc600480360360208110156101a657600080fd5b8101908080359060200190929190505050610333565b6040518082815260200191505060405180910390f35b6101da610499565b6040518082815260200191505060405180910390f35b61023c6004803603604081101561020657600080fd5b8101908080359060200190929190803573ffffffffffffffffffffffffffffffffffffffff16906020019092919050505061049f565b005b6102746004803603604081101561025457600080fd5b810190808035906020019092919080359060200190929190505050610639565b005b6102a26004803603602081101561028c57600080fd5b810190808035906020019092919050505061076d565b005b60006020528060005260406000206000915090508060000160009054906101000a900473ffffffffffffffffffffffffffffffffffffffff16908060010154908060020154908060030154905084565b600080600083815260200190815260200160002060000160009054906101000a900473ffffffffffffffffffffffffffffffffffffffff169050919050565b60008033600154604051602001808373ffffffffffffffffffffffffffffffffffffffff1673ffffffffffffffffffffffffffffffffffffffff166c01000000000000000000000000028152601401828152602001925050506040516020818303038152906040528051906020012090503360008083815260200190815260200160002060000160006101000a81548173ffffffffffffffffffffffffffffffffffffffff021916908373ffffffffffffffffffffffffffffffffffffffff16021790555042600080838152602001908152602001600020600101819055504260008083815260200190815260200160002060020181905550826000808381526020019081526020016000206003018190555060018054016001819055507fb6a24994a870a1375dc4e9089f3231a7b48c0cbfdb6f294043aac35a47a4cb258184604051808381526020018281526020019250505060405180910390a180915050919050565b60015481565b813373ffffffffffffffffffffffffffffffffffffffff1660008083815260200190815260200160002060000160009054906101000a900473ffffffffffffffffffffffffffffffffffffffff1673ffffffffffffffffffffffffffffffffffffffff1614151561055b576040517f08c379a00000000000000000000000000000000000000000000000000000000081526004018080602001828103825260218152602001806108b96021913960400191505060405180910390fd5b8160008085815260200190815260200160002060000160006101000a81548173ffffffffffffffffffffffffffffffffffffffff021916908373ffffffffffffffffffffffffffffffffffffffff16021790555042600080858152602001908152602001600020600201819055507f81fcb69f59c044d5fe0e96b4fa4441219eea0609e09f9455ba7c649bf8c1d34c8383604051808381526020018273ffffffffffffffffffffffffffffffffffffffff1673ffffffffffffffffffffffffffffffffffffffff1681526020019250505060405180910390a1505050565b813373ffffffffffffffffffffffffffffffffffffffff1660008083815260200190815260200160002060000160009054906101000a900473ffffffffffffffffffffffffffffffffffffffff1673ffffffffffffffffffffffffffffffffffffffff161415156106f5576040517f08c379a00000000000000000000000000000000000000000000000000000000081526004018080602001828103825260218152602001806108b96021913960400191505060405180910390fd5b816000808581526020019081526020016000206003018190555042600080858152602001908152602001600020600201819055507f50de84553b95cc9ab1cd14ae270f3790552cb6bc6d238e49d890b3296a1eefae8383604051808381526020018281526020019250505060405180910390a1505050565b803373ffffffffffffffffffffffffffffffffffffffff1660008083815260200190815260200160002060000160009054906101000a900473ffffffffffffffffffffffffffffffffffffffff1673ffffffffffffffffffffffffffffffffffffffff16141515610829576040517f08c379a00000000000000000000000000000000000000000000000000000000081526004018080602001828103825260218152602001806108b96021913960400191505060405180910390fd5b600080838152602001908152602001600020600080820160006101000a81549073ffffffffffffffffffffffffffffffffffffffff021916905560018201600090556002820160009055600382016000905550507f86466f9af23681b95d04bca6b25296160cfca9eec0a4dd275bc43e707f641562826040518082815260200191505060405180910390a1505056fe73656e64657220686173206e6f20636f6e74726f6c206f66207468697320444944a165627a7a7230582083a9c334ca69d9dcf9e9553816830123382d9145fb670979ba632d094755adbf0029",
	"source": "pragma solidity ^0.5.4;\n\n\n/**\n * @title DIDLedger\n * @dev DID Ledger for the SelfKey DID method.\n * A DID is controlled by their creator address by default, but control can be assigned to any\n * different adddress by their current controller.\n */\ncontract DIDLedger {\n\n    struct DID {\n        address controller;\n        uint256 created;\n        uint256 updated;\n        bytes32 metadata;\n    }\n\n    mapping(bytes32 => DID) public dids;\n    uint256 public nonce = 0;\n\n    event CreatedDID(bytes32 id, bytes32 metadata);\n    event DeletedDID(bytes32 id);\n    event SetMetadata(bytes32 id, bytes32 metadata);\n    event SetController(bytes32 id, address newController);\n\n    modifier onlyController(bytes32 id) {\n        require(dids[id].controller == msg.sender, \"sender has no control of this DID\");\n        _;\n    }\n\n    /**\n     * @dev Register new DID.\n     * @param _metadata — Arbitrary 32-byte data field. Can be later changed by their owner.\n     */\n    function createDID(bytes32 _metadata)\n        public\n        returns (bytes32)\n    {\n        bytes32 _hash = keccak256(abi.encodePacked(msg.sender, nonce));\n\n        dids[_hash].controller = msg.sender;\n        dids[_hash].created = now;\n        dids[_hash].updated = now;\n        dids[_hash].metadata = _metadata;\n        nonce = nonce + 1;\n\n        emit CreatedDID(_hash, _metadata);\n        return _hash;\n    }\n\n    /**\n     * @dev Update DID metadata. Only callable by DID controller.\n     * @param id — The identifier (DID) to be updated\n     * @param _metadata — Arbitrary 32-byte value to be assigned as metadata.\n     */\n    function setMetadata(bytes32 id, bytes32 _metadata)\n        public\n        onlyController(id)\n    {\n        dids[id].metadata = _metadata;\n        dids[id].updated = now;\n        emit SetMetadata(id, _metadata);\n    }\n\n    /**\n     * @dev Remove DID. Only callable by DID controller.\n     * @param id — The identifier (DID) to be deleted\n     */\n    function deleteDID(bytes32 id)\n        public\n        onlyController(id)\n    {\n        delete dids[id];\n        emit DeletedDID(id);\n    }\n\n\n    /**\n     * @dev Returns corresponding controller for given DID\n     * @param id — The identifier (DID) to be resolved to its controller address\n     */\n    function getController(bytes32 id)\n        public\n        view\n        returns (address)\n    {\n        return dids[id].controller;\n    }\n\n    /**\n     * @dev Change controller address. Only callable by current DID controller.\n     * @param id — The identifier (DID) to be updated\n     * @param newController — New controller addresss\n     */\n    function setController(bytes32 id, address newController)\n        public\n        onlyController(id)\n    {\n        dids[id].controller = newController;\n        dids[id].updated = now;\n        emit SetController(id, newController);\n    }\n}\n",
	"sourcePath": "/home/carlos/work/dev/github/cbruguera/selfkey-identity/contracts/DIDLedger.sol",
	"compiler": {
		"name": "solc",
		"version": "0.5.4+commit.9549d8ff.Emscripten.clang"
	},
	"schemaVersion": "3.0.5",
	"updatedAt": "2019-04-09T08:43:13.241Z",
	"devdoc": {
		"details": "DID Ledger for the SelfKey DID method. A DID is controlled by their creator address by default, but control can be assigned to any different adddress by their current controller.",
		"methods": {
			"createDID(bytes32)": {
				"details": "Register new DID.",
				"params": {
					"_metadata": "— Arbitrary 32-byte data field. Can be later changed by their owner."
				}
			},
			"deleteDID(bytes32)": {
				"details": "Remove DID. Only callable by DID controller.",
				"params": {
					"id": "— The identifier (DID) to be deleted"
				}
			},
			"getController(bytes32)": {
				"details": "Returns corresponding controller for given DID",
				"params": {
					"id": "— The identifier (DID) to be resolved to its controller address"
				}
			},
			"setController(bytes32,address)": {
				"details": "Change controller address. Only callable by current DID controller.",
				"params": {
					"id": "— The identifier (DID) to be updated",
					"newController": "— New controller addresss"
				}
			},
			"setMetadata(bytes32,bytes32)": {
				"details": "Update DID metadata. Only callable by DID controller.",
				"params": {
					"_metadata": "— Arbitrary 32-byte value to be assigned as metadata.",
					"id": "— The identifier (DID) to be updated"
				}
			}
		},
		"title": "DIDLedger"
	},
	"userdoc": {
		"methods": {}
	}
}