{
	"contractName": "PaymentSplitter",
	"abi": [
		{
			"constant": true,
			"inputs": [],
			"name": "main",
			"outputs": [
				{
					"name": "",
					"type": "address"
				}
			],
			"payable": false,
			"stateMutability": "view",
			"type": "function"
		},
		{
			"inputs": [
				{
					"name": "_main",
					"type": "address"
				}
			],
			"payable": false,
			"stateMutability": "nonpayable",
			"type": "constructor"
		},
		{
			"anonymous": false,
			"inputs": [
				{
					"indexed": false,
					"name": "recipient",
					"type": "address"
				},
				{
					"indexed": false,
					"name": "recipientDID",
					"type": "bytes32"
				},
				{
					"indexed": false,
					"name": "amount",
					"type": "uint256"
				}
			],
			"name": "AffiliateCommissionPaid",
			"type": "event"
		},
		{
			"anonymous": false,
			"inputs": [
				{
					"indexed": false,
					"name": "sender",
					"type": "bytes32"
				},
				{
					"indexed": false,
					"name": "recipient",
					"type": "bytes32"
				},
				{
					"indexed": false,
					"name": "amount",
					"type": "uint256"
				},
				{
					"indexed": false,
					"name": "purchaseInfo",
					"type": "bytes32"
				}
			],
			"name": "PaymentExecuted",
			"type": "event"
		},
		{
			"constant": false,
			"inputs": [
				{
					"name": "_token",
					"type": "address"
				},
				{
					"name": "senderDID",
					"type": "bytes32"
				},
				{
					"name": "recipientDID",
					"type": "bytes32"
				},
				{
					"name": "amount",
					"type": "uint256"
				},
				{
					"name": "purchaseInfo",
					"type": "bytes32"
				},
				{
					"name": "affiliate1Split",
					"type": "uint256"
				},
				{
					"name": "affiliate2Split",
					"type": "uint256"
				}
			],
			"name": "makePayment",
			"outputs": [
				{
					"name": "",
					"type": "uint256"
				}
			],
			"payable": false,
			"stateMutability": "nonpayable",
			"type": "function"
		}
	],
	"bytecode": "0x608060405234801561001057600080fd5b506040516020806110898339810180604052602081101561003057600080fd5b8101908080519060200190929190505050806000806101000a81548173ffffffffffffffffffffffffffffffffffffffff021916908373ffffffffffffffffffffffffffffffffffffffff16021790555050610ff8806100916000396000f3fe608060405234801561001057600080fd5b5060043610610053576000357c0100000000000000000000000000000000000000000000000000000000900480634d37934314610058578063dffeadd0146100ec575b600080fd5b6100d6600480360360e081101561006e57600080fd5b81019080803573ffffffffffffffffffffffffffffffffffffffff169060200190929190803590602001909291908035906020019092919080359060200190929190803590602001909291908035906020019092919080359060200190929190505050610136565b6040518082815260200191505060405180910390f35b6100f46109be565b604051808273ffffffffffffffffffffffffffffffffffffffff1673ffffffffffffffffffffffffffffffffffffffff16815260200191505060405180910390f35b6000808890506000809054906101000a900473ffffffffffffffffffffffffffffffffffffffff1673ffffffffffffffffffffffffffffffffffffffff166385596c84886040518263ffffffff167c01000000000000000000000000000000000000000000000000000000000281526004018082815260200191505060206040518083038186803b1580156101ca57600080fd5b505afa1580156101de573d6000803e3d6000fd5b505050506040513d60208110156101f457600080fd5b8101908080519060200190929190505050151561025c576040517f08c379a0000000000000000000000000000000000000000000000000000000008152600401808060200182810382526029815260200180610f7d6029913960400191505060405180910390fd5b60008060009054906101000a900473ffffffffffffffffffffffffffffffffffffffff1673ffffffffffffffffffffffffffffffffffffffff1663de8d4ed2896040518263ffffffff167c01000000000000000000000000000000000000000000000000000000000281526004018082815260200191505060206040518083038186803b1580156102ec57600080fd5b505afa158015610300573d6000803e3d6000fd5b505050506040513d602081101561031657600080fd5b81019080805190602001909291905050509050600073ffffffffffffffffffffffffffffffffffffffff168173ffffffffffffffffffffffffffffffffffffffff16141515156103ce576040517f08c379a00000000000000000000000000000000000000000000000000000000081526004018080602001828103825260158152602001807f496e76616c696420726563697069656e7420444944000000000000000000000081525060200191505060405180910390fd5b60008060009054906101000a900473ffffffffffffffffffffffffffffffffffffffff1673ffffffffffffffffffffffffffffffffffffffff1663de8d4ed28b6040518263ffffffff167c01000000000000000000000000000000000000000000000000000000000281526004018082815260200191505060206040518083038186803b15801561045e57600080fd5b505afa158015610472573d6000803e3d6000fd5b505050506040513d602081101561048857600080fd5b810190808051906020019092919050505090503373ffffffffffffffffffffffffffffffffffffffff168173ffffffffffffffffffffffffffffffffffffffff16141515610521576040517f08c379a0000000000000000000000000000000000000000000000000000000008152600401808060200182810382526027815260200180610fa66027913960400191505060405180910390fd5b61054e33308a8673ffffffffffffffffffffffffffffffffffffffff166109e3909392919063ffffffff16565b60006105766064610568898c610b0590919063ffffffff16565b610b4390919063ffffffff16565b905060006105a06064610592898d610b0590919063ffffffff16565b610b4390919063ffffffff16565b905060008a905060008060009054906101000a900473ffffffffffffffffffffffffffffffffffffffff1673ffffffffffffffffffffffffffffffffffffffff16633df6d7788f6040518263ffffffff167c01000000000000000000000000000000000000000000000000000000000281526004018082815260200191505060206040518083038186803b15801561063757600080fd5b505afa15801561064b573d6000803e3d6000fd5b505050506040513d602081101561066157600080fd5b81019080805190602001909291905050509050600061067f82610b6d565b9050600073ffffffffffffffffffffffffffffffffffffffff168173ffffffffffffffffffffffffffffffffffffffff16141515610931576106ca8584610d2590919063ffffffff16565b92506106f781868a73ffffffffffffffffffffffffffffffffffffffff16610d479092919063ffffffff16565b7f125f2f6a88ec943a96800ab3b575e22c18c68849976e9371ce5292a8b889bb20818387604051808473ffffffffffffffffffffffffffffffffffffffff1673ffffffffffffffffffffffffffffffffffffffff168152602001838152602001828152602001935050505060405180910390a160008060009054906101000a900473ffffffffffffffffffffffffffffffffffffffff1673ffffffffffffffffffffffffffffffffffffffff16633df6d778846040518263ffffffff167c01000000000000000000000000000000000000000000000000000000000281526004018082815260200191505060206040518083038186803b1580156107fa57600080fd5b505afa15801561080e573d6000803e3d6000fd5b505050506040513d602081101561082457600080fd5b81019080805190602001909291905050509050600061084282610b6d565b9050600073ffffffffffffffffffffffffffffffffffffffff168173ffffffffffffffffffffffffffffffffffffffff1614151561092e5761088d8686610d2590919063ffffffff16565b94506108ba81878c73ffffffffffffffffffffffffffffffffffffffff16610d479092919063ffffffff16565b7f125f2f6a88ec943a96800ab3b575e22c18c68849976e9371ce5292a8b889bb20818388604051808473ffffffffffffffffffffffffffffffffffffffff1673ffffffffffffffffffffffffffffffffffffffff168152602001838152602001828152602001935050505060405180910390a15b50505b61095c87848a73ffffffffffffffffffffffffffffffffffffffff16610d479092919063ffffffff16565b7fd4f650fa6306dc0859098d9ed7547afa30bc5762818adcc2bca7a520829e15b38f8f8f8f6040518085815260200184815260200183815260200182815260200194505050505060405180910390a15050505050505050979650505050505050565b6000809054906101000a900473ffffffffffffffffffffffffffffffffffffffff1681565b610aff848573ffffffffffffffffffffffffffffffffffffffff166323b872dd90507c010000000000000000000000000000000000000000000000000000000002858585604051602401808473ffffffffffffffffffffffffffffffffffffffff1673ffffffffffffffffffffffffffffffffffffffff1681526020018373ffffffffffffffffffffffffffffffffffffffff1673ffffffffffffffffffffffffffffffffffffffff1681526020018281526020019350505050604051602081830303815290604052907bffffffffffffffffffffffffffffffffffffffffffffffffffffffff19166020820180517bffffffffffffffffffffffffffffffffffffffffffffffffffffffff8381831617835250505050610e34565b50505050565b600080831415610b185760009050610b3d565b60008284029050828482811515610b2b57fe5b04141515610b3857600080fd5b809150505b92915050565b60008082111515610b5357600080fd5b60008284811515610b6057fe5b0490508091505092915050565b600080600102821480610c4657506000809054906101000a900473ffffffffffffffffffffffffffffffffffffffff1673ffffffffffffffffffffffffffffffffffffffff16639bf66fc0836040518263ffffffff167c01000000000000000000000000000000000000000000000000000000000281526004018082815260200191505060206040518083038186803b158015610c0957600080fd5b505afa158015610c1d573d6000803e3d6000fd5b505050506040513d6020811015610c3357600080fd5b8101908080519060200190929190505050155b15610c545760009050610d20565b6000809054906101000a900473ffffffffffffffffffffffffffffffffffffffff1673ffffffffffffffffffffffffffffffffffffffff1663de8d4ed2836040518263ffffffff167c01000000000000000000000000000000000000000000000000000000000281526004018082815260200191505060206040518083038186803b158015610ce257600080fd5b505afa158015610cf6573d6000803e3d6000fd5b505050506040513d6020811015610d0c57600080fd5b810190808051906020019092919050505090505b919050565b6000828211151515610d3657600080fd5b600082840390508091505092915050565b610e2f838473ffffffffffffffffffffffffffffffffffffffff1663a9059cbb90507c0100000000000000000000000000000000000000000000000000000000028484604051602401808373ffffffffffffffffffffffffffffffffffffffff1673ffffffffffffffffffffffffffffffffffffffff16815260200182815260200192505050604051602081830303815290604052907bffffffffffffffffffffffffffffffffffffffffffffffffffffffff19166020820180517bffffffffffffffffffffffffffffffffffffffffffffffffffffffff8381831617835250505050610e34565b505050565b610e538273ffffffffffffffffffffffffffffffffffffffff16610f69565b1515610e5e57600080fd5b600060608373ffffffffffffffffffffffffffffffffffffffff16836040518082805190602001908083835b602083101515610eaf5780518252602082019150602081019050602083039250610e8a565b6001836020036101000a0380198251168184511680821785525050505050509050019150506000604051808303816000865af19150503d8060008114610f11576040519150601f19603f3d011682016040523d82523d6000602084013e610f16565b606091505b5091509150811515610f2757600080fd5b600081511115610f6357808060200190516020811015610f4657600080fd5b81019080805190602001909291905050501515610f6257600080fd5b5b50505050565b600080823b90506000811191505091905056fe526563697069656e7420444944206973206e6f7420726567697374657265642061732076656e646f7253656e64657220686173206e6f20636f6e74726f6c206f7665722070726f766964656420444944a165627a7a723058203744689b615762e449faea1826e7c1340ebfeedfd9f31aff967cae4f125f0a640029",
	"source": "pragma solidity 0.5.4;\n\nimport \"./SelfKeyMain.sol\";\nimport \"openzeppelin-solidity/contracts/math/SafeMath.sol\";\nimport \"openzeppelin-solidity/contracts/token/ERC20/SafeERC20.sol\";\nimport \"openzeppelin-solidity/contracts/token/ERC20/IERC20.sol\";\n\n/**\n *  Contract that handles splitting of payments for affiliate fees\n */\ncontract PaymentSplitter {\n    using SafeERC20 for IERC20;\n    using SafeMath for uint256;\n\n    SelfKeyMain public main;\n\n    event AffiliateCommissionPaid(\n        address recipient,\n        bytes32 recipientDID,\n        uint256 amount\n    );\n    event PaymentExecuted(\n        bytes32 sender,\n        bytes32 recipient,\n        uint256 amount,\n        bytes32 purchaseInfo\n    );\n\n    constructor(address _main) public {\n        main = SelfKeyMain(_main);\n    }\n\n    /**\n     *  Make a payment to a recipient address with escrow and two level affiliate splitting\n     */\n    function makePayment(\n        address _token,\n        bytes32 senderDID,\n        bytes32 recipientDID,\n        uint256 amount,\n        bytes32 purchaseInfo,\n        uint256 affiliate1Split,\n        uint256 affiliate2Split\n    )\n        public\n        returns (uint256)\n    {\n        IERC20 token = IERC20(_token);  // SelfkeyToken contract\n        require(main.vendorStatus(recipientDID), \"Recipient DID is not registered as vendor\");\n\n        address recipientAddress = main.resolveDID(recipientDID);\n        require(recipientAddress != address(0), \"Invalid recipient DID\");\n\n        address senderAddress = main.resolveDID(senderDID);\n        require(senderAddress == msg.sender, \"Sender has no control over provided DID\");\n\n        token.safeTransferFrom(msg.sender, address(this), amount);\n\n        uint256 affiliate1Amount = (amount.mul(affiliate1Split)).div(100);\n        uint256 affiliate2Amount = (amount.mul(affiliate2Split)).div(100);\n        uint256 vendorAmount = amount;\n\n        bytes32 affiliate1 = main.affiliateConnections(senderDID);\n        address affiliate1Address = resolveAffiliate(affiliate1);\n\n        if (affiliate1Address != address(0)) {\n            vendorAmount = vendorAmount.sub(affiliate1Amount);\n            token.safeTransfer(affiliate1Address, affiliate1Amount);\n            emit AffiliateCommissionPaid(affiliate1Address, affiliate1, affiliate1Amount);\n\n            bytes32 affiliate2 = main.affiliateConnections(affiliate1);\n            address affiliate2Address = resolveAffiliate(affiliate2);\n\n            if (affiliate2Address != address(0)) {\n                vendorAmount = vendorAmount.sub(affiliate2Amount);\n                token.safeTransfer(affiliate2Address, affiliate2Amount);\n                emit AffiliateCommissionPaid(affiliate2Address, affiliate2, affiliate2Amount);\n            }\n        }\n\n        token.safeTransfer(recipientAddress, vendorAmount);\n\n        emit PaymentExecuted(senderDID, recipientDID, amount, purchaseInfo);\n    }\n\n    function resolveAffiliate(bytes32 did)\n        internal\n        view\n        returns (address)\n    {\n        if (did == bytes32(0) || !main.affiliateStatus(did)) {\n            return address(0);\n        } else {\n            return main.resolveDID(did);\n        }\n    }\n}\n",
	"sourcePath": "/home/carlos/work/dev/github/cbruguera/selfkey-main-contracts/contracts/PaymentSplitter.sol",
	"compiler": {
		"name": "solc",
		"version": "0.5.4+commit.9549d8ff.Emscripten.clang"
	},
	"schemaVersion": "3.0.9",
	"updatedAt": "2019-05-31T02:27:00.426Z",
	"devdoc": {
		"methods": {}
	},
	"userdoc": {
		"methods": {
			"makePayment(address,bytes32,bytes32,uint256,bytes32,uint256,uint256)": {
				"notice": "Make a payment to a recipient address with escrow and two level affiliate splitting"
			}
		},
		"notice": "Contract that handles splitting of payments for affiliate fees"
	}
}