{
	"contractName": "SelfKeyMain",
	"abi": [
		{
			"constant": false,
			"inputs": [
				{
					"name": "account",
					"type": "address"
				}
			],
			"name": "addWhitelisted",
			"outputs": [],
			"payable": false,
			"stateMutability": "nonpayable",
			"type": "function"
		},
		{
			"constant": false,
			"inputs": [
				{
					"name": "account",
					"type": "address"
				}
			],
			"name": "removeWhitelisted",
			"outputs": [],
			"payable": false,
			"stateMutability": "nonpayable",
			"type": "function"
		},
		{
			"constant": true,
			"inputs": [
				{
					"name": "account",
					"type": "address"
				}
			],
			"name": "isWhitelisted",
			"outputs": [
				{
					"name": "",
					"type": "bool"
				}
			],
			"payable": false,
			"stateMutability": "view",
			"type": "function"
		},
		{
			"constant": true,
			"inputs": [
				{
					"name": "",
					"type": "bytes32"
				}
			],
			"name": "affiliateConnections",
			"outputs": [
				{
					"name": "",
					"type": "bytes32"
				}
			],
			"payable": false,
			"stateMutability": "view",
			"type": "function"
		},
		{
			"constant": false,
			"inputs": [],
			"name": "renounceWhitelistAdmin",
			"outputs": [],
			"payable": false,
			"stateMutability": "nonpayable",
			"type": "function"
		},
		{
			"constant": true,
			"inputs": [
				{
					"name": "",
					"type": "bytes32"
				}
			],
			"name": "addresses",
			"outputs": [
				{
					"name": "",
					"type": "address"
				}
			],
			"payable": false,
			"stateMutability": "view",
			"type": "function"
		},
		{
			"constant": false,
			"inputs": [
				{
					"name": "account",
					"type": "address"
				}
			],
			"name": "addWhitelistAdmin",
			"outputs": [],
			"payable": false,
			"stateMutability": "nonpayable",
			"type": "function"
		},
		{
			"constant": true,
			"inputs": [
				{
					"name": "",
					"type": "bytes32"
				}
			],
			"name": "vendorStatus",
			"outputs": [
				{
					"name": "",
					"type": "bool"
				}
			],
			"payable": false,
			"stateMutability": "view",
			"type": "function"
		},
		{
			"constant": true,
			"inputs": [
				{
					"name": "",
					"type": "bytes32"
				}
			],
			"name": "affiliateStatus",
			"outputs": [
				{
					"name": "",
					"type": "bool"
				}
			],
			"payable": false,
			"stateMutability": "view",
			"type": "function"
		},
		{
			"constant": true,
			"inputs": [
				{
					"name": "account",
					"type": "address"
				}
			],
			"name": "isWhitelistAdmin",
			"outputs": [
				{
					"name": "",
					"type": "bool"
				}
			],
			"payable": false,
			"stateMutability": "view",
			"type": "function"
		},
		{
			"constant": false,
			"inputs": [],
			"name": "renounceWhitelisted",
			"outputs": [],
			"payable": false,
			"stateMutability": "nonpayable",
			"type": "function"
		},
		{
			"anonymous": false,
			"inputs": [
				{
					"indexed": false,
					"name": "id",
					"type": "bytes32"
				}
			],
			"name": "RegisteredAffiliate",
			"type": "event"
		},
		{
			"anonymous": false,
			"inputs": [
				{
					"indexed": false,
					"name": "id",
					"type": "bytes32"
				}
			],
			"name": "RegisteredVendor",
			"type": "event"
		},
		{
			"anonymous": false,
			"inputs": [
				{
					"indexed": false,
					"name": "id",
					"type": "bytes32"
				}
			],
			"name": "RemovedAffiliate",
			"type": "event"
		},
		{
			"anonymous": false,
			"inputs": [
				{
					"indexed": false,
					"name": "id",
					"type": "bytes32"
				}
			],
			"name": "RemovedVendor",
			"type": "event"
		},
		{
			"anonymous": false,
			"inputs": [
				{
					"indexed": false,
					"name": "id",
					"type": "bytes32"
				}
			],
			"name": "RegisteredSelfKeyDID",
			"type": "event"
		},
		{
			"anonymous": false,
			"inputs": [
				{
					"indexed": false,
					"name": "user",
					"type": "bytes32"
				},
				{
					"indexed": false,
					"name": "affiliate",
					"type": "bytes32"
				}
			],
			"name": "AddedAffiliateConnection",
			"type": "event"
		},
		{
			"anonymous": false,
			"inputs": [
				{
					"indexed": false,
					"name": "user",
					"type": "bytes32"
				},
				{
					"indexed": false,
					"name": "affiliate",
					"type": "bytes32"
				}
			],
			"name": "RemovedAffiliateConnection",
			"type": "event"
		},
		{
			"anonymous": false,
			"inputs": [
				{
					"indexed": false,
					"name": "id",
					"type": "bytes32"
				},
				{
					"indexed": false,
					"name": "affiliate",
					"type": "bytes32"
				}
			],
			"name": "CreatedSelfKeyDID",
			"type": "event"
		},
		{
			"anonymous": false,
			"inputs": [
				{
					"indexed": false,
					"name": "key",
					"type": "bytes32"
				},
				{
					"indexed": false,
					"name": "_address",
					"type": "address"
				}
			],
			"name": "SetAddress",
			"type": "event"
		},
		{
			"anonymous": false,
			"inputs": [
				{
					"indexed": true,
					"name": "account",
					"type": "address"
				}
			],
			"name": "WhitelistedAdded",
			"type": "event"
		},
		{
			"anonymous": false,
			"inputs": [
				{
					"indexed": true,
					"name": "account",
					"type": "address"
				}
			],
			"name": "WhitelistedRemoved",
			"type": "event"
		},
		{
			"anonymous": false,
			"inputs": [
				{
					"indexed": true,
					"name": "account",
					"type": "address"
				}
			],
			"name": "WhitelistAdminAdded",
			"type": "event"
		},
		{
			"anonymous": false,
			"inputs": [
				{
					"indexed": true,
					"name": "account",
					"type": "address"
				}
			],
			"name": "WhitelistAdminRemoved",
			"type": "event"
		},
		{
			"constant": false,
			"inputs": [
				{
					"name": "key",
					"type": "bytes32"
				},
				{
					"name": "_address",
					"type": "address"
				}
			],
			"name": "setAddress",
			"outputs": [],
			"payable": false,
			"stateMutability": "nonpayable",
			"type": "function"
		},
		{
			"constant": true,
			"inputs": [
				{
					"name": "key",
					"type": "bytes32"
				}
			],
			"name": "getAddress",
			"outputs": [
				{
					"name": "",
					"type": "address"
				}
			],
			"payable": false,
			"stateMutability": "view",
			"type": "function"
		},
		{
			"constant": false,
			"inputs": [
				{
					"name": "affiliateID",
					"type": "bytes32"
				}
			],
			"name": "registerAffiliate",
			"outputs": [],
			"payable": false,
			"stateMutability": "nonpayable",
			"type": "function"
		},
		{
			"constant": false,
			"inputs": [
				{
					"name": "vendorID",
					"type": "bytes32"
				}
			],
			"name": "registerVendor",
			"outputs": [],
			"payable": false,
			"stateMutability": "nonpayable",
			"type": "function"
		},
		{
			"constant": false,
			"inputs": [
				{
					"name": "user",
					"type": "bytes32"
				},
				{
					"name": "affiliate",
					"type": "bytes32"
				}
			],
			"name": "addAffiliateConnection",
			"outputs": [],
			"payable": false,
			"stateMutability": "nonpayable",
			"type": "function"
		},
		{
			"constant": false,
			"inputs": [
				{
					"name": "affiliateID",
					"type": "bytes32"
				}
			],
			"name": "removeAffiliate",
			"outputs": [],
			"payable": false,
			"stateMutability": "nonpayable",
			"type": "function"
		},
		{
			"constant": false,
			"inputs": [
				{
					"name": "vendorID",
					"type": "bytes32"
				}
			],
			"name": "removeVendor",
			"outputs": [],
			"payable": false,
			"stateMutability": "nonpayable",
			"type": "function"
		},
		{
			"constant": false,
			"inputs": [
				{
					"name": "user",
					"type": "bytes32"
				}
			],
			"name": "removeAffiliateConnection",
			"outputs": [],
			"payable": false,
			"stateMutability": "nonpayable",
			"type": "function"
		},
		{
			"constant": false,
			"inputs": [
				{
					"name": "affiliateID",
					"type": "bytes32"
				}
			],
			"name": "createDID",
			"outputs": [
				{
					"name": "",
					"type": "bytes32"
				}
			],
			"payable": false,
			"stateMutability": "nonpayable",
			"type": "function"
		},
		{
			"constant": true,
			"inputs": [
				{
					"name": "did",
					"type": "bytes32"
				}
			],
			"name": "resolveDID",
			"outputs": [
				{
					"name": "",
					"type": "address"
				}
			],
			"payable": false,
			"stateMutability": "view",
			"type": "function"
		}
	],
	"bytecode": "0x60806040526200001e3362000024640100000000026401000000009004565b620001e6565b620000488160006200008e640100000000026200158d179091906401000000009004565b8073ffffffffffffffffffffffffffffffffffffffff167f22380c05984257a1cb900161c713dd71d39e74820f1aea43bd3f1bdd2096129960405160405180910390a250565b600073ffffffffffffffffffffffffffffffffffffffff168173ffffffffffffffffffffffffffffffffffffffff1614151515620000cb57600080fd5b620000e6828262000151640100000000026401000000009004565b151515620000f357600080fd5b60018260000160008373ffffffffffffffffffffffffffffffffffffffff1673ffffffffffffffffffffffffffffffffffffffff16815260200190815260200160002060006101000a81548160ff0219169083151502179055505050565b60008073ffffffffffffffffffffffffffffffffffffffff168273ffffffffffffffffffffffffffffffffffffffff16141515156200018f57600080fd5b8260000160008373ffffffffffffffffffffffffffffffffffffffff1673ffffffffffffffffffffffffffffffffffffffff16815260200190815260200160002060009054906101000a900460ff16905092915050565b61176280620001f66000396000f3fe608060405234801561001057600080fd5b5060043610610154576000357c010000000000000000000000000000000000000000000000000000000090048063699f200f116100d55780639bf66fc0116100995780639bf66fc014610521578063b4637b6214610567578063bb5f747b14610595578063ca446dd9146105f1578063d6cd94731461063f578063de8d4ed21461064957610154565b8063699f200f146103b95780637362d9c81461042757806385596c841461046b578063900dacec146104b1578063945ffb0e146104df57610154565b80633af32abf1161011c5780633af32abf146102b55780633df6d778146103115780634c5a628c146103535780634e59b6371461035d57806355d87cee1461038b57610154565b80630977167d1461015957806310154bad1461019157806321f8a721146101d5578063291d9549146102435780633819b63414610287575b600080fd5b61018f6004803603604081101561016f57600080fd5b8101908080359060200190929190803590602001909291905050506106b7565b005b6101d3600480360360208110156101a757600080fd5b81019080803573ffffffffffffffffffffffffffffffffffffffff16906020019092919050505061079e565b005b610201600480360360208110156101eb57600080fd5b81019080803590602001909291905050506107be565b604051808273ffffffffffffffffffffffffffffffffffffffff1673ffffffffffffffffffffffffffffffffffffffff16815260200191505060405180910390f35b6102856004803603602081101561025957600080fd5b81019080803573ffffffffffffffffffffffffffffffffffffffff1690602001909291905050506107fb565b005b6102b36004803603602081101561029d57600080fd5b810190808035906020019092919050505061081b565b005b6102f7600480360360208110156102cb57600080fd5b81019080803573ffffffffffffffffffffffffffffffffffffffff169060200190929190505050610a18565b604051808215151515815260200191505060405180910390f35b61033d6004803603602081101561032757600080fd5b8101908080359060200190929190505050610a35565b6040518082815260200191505060405180910390f35b61035b610a4d565b005b6103896004803603602081101561037357600080fd5b8101908080359060200190929190505050610a58565b005b6103b7600480360360208110156103a157600080fd5b8101908080359060200190929190505050610c55565b005b6103e5600480360360208110156103cf57600080fd5b8101908080359060200190929190505050610ccf565b604051808273ffffffffffffffffffffffffffffffffffffffff1673ffffffffffffffffffffffffffffffffffffffff16815260200191505060405180910390f35b6104696004803603602081101561043d57600080fd5b81019080803573ffffffffffffffffffffffffffffffffffffffff169060200190929190505050610d02565b005b6104976004803603602081101561048157600080fd5b8101908080359060200190929190505050610d22565b604051808215151515815260200191505060405180910390f35b6104dd600480360360208110156104c757600080fd5b8101908080359060200190929190505050610d42565b005b61050b600480360360208110156104f557600080fd5b8101908080359060200190929190505050610dcd565b6040518082815260200191505060405180910390f35b61054d6004803603602081101561053757600080fd5b81019080803590602001909291905050506110f6565b604051808215151515815260200191505060405180910390f35b6105936004803603602081101561057d57600080fd5b8101908080359060200190929190505050611116565b005b6105d7600480360360208110156105ab57600080fd5b81019080803573ffffffffffffffffffffffffffffffffffffffff169060200190929190505050611190565b604051808215151515815260200191505060405180910390f35b61063d6004803603604081101561060757600080fd5b8101908080359060200190929190803573ffffffffffffffffffffffffffffffffffffffff1690602001909291905050506111ad565b005b610647611282565b005b6106756004803603602081101561065f57600080fd5b810190808035906020019092919050505061128d565b604051808273ffffffffffffffffffffffffffffffffffffffff1673ffffffffffffffffffffffffffffffffffffffff16815260200191505060405180910390f35b6106c033610a18565b15156106cb57600080fd5b6004600082815260200190815260200160002060009054906101000a900460ff161515610743576040517f08c379a00000000000000000000000000000000000000000000000000000000081526004018080602001828103825260278152602001806117106027913960400191505060405180910390fd5b8060036000848152602001908152602001600020819055507fd3990cfc7e25e281e8e032957e70f6e9707a25ec7e01586060a4d0212800a7328282604051808381526020018281526020019250505060405180910390a15050565b6107a733611190565b15156107b257600080fd5b6107bb81611391565b50565b60006002600083815260200190815260200160002060009054906101000a900473ffffffffffffffffffffffffffffffffffffffff169050919050565b61080433611190565b151561080f57600080fd5b610818816113eb565b50565b61082433610a18565b151561082f57600080fd5b600061088060405160200180807f4449444c656467657200000000000000000000000000000000000000000000008152506009019050604051602081830303815290604052805190602001206107be565b9050600073ffffffffffffffffffffffffffffffffffffffff168173ffffffffffffffffffffffffffffffffffffffff16638f1815b2846040518263ffffffff167c01000000000000000000000000000000000000000000000000000000000281526004018082815260200191505060206040518083038186803b15801561090757600080fd5b505afa15801561091b573d6000803e3d6000fd5b505050506040513d602081101561093157600080fd5b810190808051906020019092919050505073ffffffffffffffffffffffffffffffffffffffff16141515156109b1576040517f08c379a00000000000000000000000000000000000000000000000000000000081526004018080602001828103825260238152602001806116ed6023913960400191505060405180910390fd5b60016004600084815260200190815260200160002060006101000a81548160ff0219169083151502179055507ff7ff9d2bfb1adb311fa44140c93bf630d217fdc4545739fcd23dc8f228e778e7826040518082815260200191505060405180910390a15050565b6000610a2e82600161144590919063ffffffff16565b9050919050565b60036020528060005260406000206000915090505481565b610a56336114d9565b565b610a6133610a18565b1515610a6c57600080fd5b6000610abd60405160200180807f4449444c656467657200000000000000000000000000000000000000000000008152506009019050604051602081830303815290604052805190602001206107be565b9050600073ffffffffffffffffffffffffffffffffffffffff168173ffffffffffffffffffffffffffffffffffffffff16638f1815b2846040518263ffffffff167c01000000000000000000000000000000000000000000000000000000000281526004018082815260200191505060206040518083038186803b158015610b4457600080fd5b505afa158015610b58573d6000803e3d6000fd5b505050506040513d6020811015610b6e57600080fd5b810190808051906020019092919050505073ffffffffffffffffffffffffffffffffffffffff1614151515610bee576040517f08c379a00000000000000000000000000000000000000000000000000000000081526004018080602001828103825260238152602001806116ed6023913960400191505060405180910390fd5b60016005600084815260200190815260200160002060006101000a81548160ff0219169083151502179055507f9b03d9f8a0626a5f45b39cf28876f00186e9b1c344daccc598993342f2bc8966826040518082815260200191505060405180910390a15050565b610c5e33610a18565b1515610c6957600080fd5b60006005600083815260200190815260200160002060006101000a81548160ff0219169083151502179055507f8d76fa968ea046052df04b852edfc8e37310114d157ec2ad538cafb3191bc465816040518082815260200191505060405180910390a150565b60026020528060005260406000206000915054906101000a900473ffffffffffffffffffffffffffffffffffffffff1681565b610d0b33611190565b1515610d1657600080fd5b610d1f81611533565b50565b60056020528060005260406000206000915054906101000a900460ff1681565b610d4b33610a18565b1515610d5657600080fd5b600060036000838152602001908152602001600020549050600060010260036000848152602001908152602001600020819055507f9031cb0e500cd81dbba8b6205908e732a57687c574b9c4a9635adcc084ddb40f8282604051808381526020018281526020019250505060405180910390a15050565b600080610e1f60405160200180807f4449444c656467657200000000000000000000000000000000000000000000008152506009019050604051602081830303815290604052805190602001206107be565b905060008173ffffffffffffffffffffffffffffffffffffffff1663945ffb0e60006001026040518263ffffffff167c010000000000000000000000000000000000000000000000000000000002815260040180828152602001915050602060405180830381600087803b158015610e9657600080fd5b505af1158015610eaa573d6000803e3d6000fd5b505050506040513d6020811015610ec057600080fd5b810190808051906020019092919050505090506004600085815260200190815260200160002060009054906101000a900460ff168015610fd45750600073ffffffffffffffffffffffffffffffffffffffff168273ffffffffffffffffffffffffffffffffffffffff16638f1815b2866040518263ffffffff167c01000000000000000000000000000000000000000000000000000000000281526004018082815260200191505060206040518083038186803b158015610f8057600080fd5b505afa158015610f94573d6000803e3d6000fd5b505050506040513d6020811015610faa57600080fd5b810190808051906020019092919050505073ffffffffffffffffffffffffffffffffffffffff1614155b15610ff2578360036000838152602001908152602001600020819055505b8173ffffffffffffffffffffffffffffffffffffffff1663d315690582336040518363ffffffff167c0100000000000000000000000000000000000000000000000000000000028152600401808381526020018273ffffffffffffffffffffffffffffffffffffffff1673ffffffffffffffffffffffffffffffffffffffff16815260200192505050600060405180830381600087803b15801561109557600080fd5b505af11580156110a9573d6000803e3d6000fd5b505050507f8bca1f79851aca3d182acf7cb7ebf4ac37f3011345c71ab5786aa1a1ecf808728185604051808381526020018281526020019250505060405180910390a18092505050919050565b60046020528060005260406000206000915054906101000a900460ff1681565b61111f33610a18565b151561112a57600080fd5b60006004600083815260200190815260200160002060006101000a81548160ff0219169083151502179055507fa9b844fc9d8562cf07e3921b7248e39b302e5c3ac7f8cd138496219960243832816040518082815260200191505060405180910390a150565b60006111a682600061144590919063ffffffff16565b9050919050565b6111b633611190565b15156111c157600080fd5b806002600084815260200190815260200160002060006101000a81548173ffffffffffffffffffffffffffffffffffffffff021916908373ffffffffffffffffffffffffffffffffffffffff1602179055507f77879ade5d0fc220756fdd6255178c5a1ad8e5ee2ae2970e8b2610242d38d8da8282604051808381526020018273ffffffffffffffffffffffffffffffffffffffff1673ffffffffffffffffffffffffffffffffffffffff1681526020019250505060405180910390a15050565b61128b336113eb565b565b6000806112df60405160200180807f4449444c656467657200000000000000000000000000000000000000000000008152506009019050604051602081830303815290604052805190602001206107be565b90508073ffffffffffffffffffffffffffffffffffffffff16638f1815b2846040518263ffffffff167c01000000000000000000000000000000000000000000000000000000000281526004018082815260200191505060206040518083038186803b15801561134e57600080fd5b505afa158015611362573d6000803e3d6000fd5b505050506040513d602081101561137857600080fd5b8101908080519060200190929190505050915050919050565b6113a581600161158d90919063ffffffff16565b8073ffffffffffffffffffffffffffffffffffffffff167fee1504a83b6d4a361f4c1dc78ab59bfa30d6a3b6612c403e86bb01ef2984295f60405160405180910390a250565b6113ff81600161163d90919063ffffffff16565b8073ffffffffffffffffffffffffffffffffffffffff167f270d9b30cf5b0793bbfd54c9d5b94aeb49462b8148399000265144a8722da6b660405160405180910390a250565b60008073ffffffffffffffffffffffffffffffffffffffff168273ffffffffffffffffffffffffffffffffffffffff161415151561148257600080fd5b8260000160008373ffffffffffffffffffffffffffffffffffffffff1673ffffffffffffffffffffffffffffffffffffffff16815260200190815260200160002060009054906101000a900460ff16905092915050565b6114ed81600061163d90919063ffffffff16565b8073ffffffffffffffffffffffffffffffffffffffff167f0a8eb35e5ca14b3d6f28e4abf2f128dbab231a58b56e89beb5d636115001e16560405160405180910390a250565b61154781600061158d90919063ffffffff16565b8073ffffffffffffffffffffffffffffffffffffffff167f22380c05984257a1cb900161c713dd71d39e74820f1aea43bd3f1bdd2096129960405160405180910390a250565b600073ffffffffffffffffffffffffffffffffffffffff168173ffffffffffffffffffffffffffffffffffffffff16141515156115c957600080fd5b6115d38282611445565b1515156115df57600080fd5b60018260000160008373ffffffffffffffffffffffffffffffffffffffff1673ffffffffffffffffffffffffffffffffffffffff16815260200190815260200160002060006101000a81548160ff0219169083151502179055505050565b600073ffffffffffffffffffffffffffffffffffffffff168173ffffffffffffffffffffffffffffffffffffffff161415151561167957600080fd5b6116838282611445565b151561168e57600080fd5b60008260000160008373ffffffffffffffffffffffffffffffffffffffff1673ffffffffffffffffffffffffffffffffffffffff16815260200190815260200160002060006101000a81548160ff021916908315150217905550505056fe444944206973206e6f742072656769737465726564206f6e20746865206c65646765724449442070726f7669646564206973206e6f74206c697374656420617320616666696c69617465a165627a7a72305820649b95855bfd84b4d4e63185208f84e331b66f32386e90171ed5c749c906ba990029",
	"source": "pragma solidity 0.5.4;\n\nimport \"selfkey-did-ledger/contracts/DIDLedger.sol\";\nimport \"openzeppelin-solidity/contracts/access/roles/WhitelistedRole.sol\";\n\n/**\n * @title SelfKeyMain\n * @dev Main entrypoint implementing SelfKey platform functionality\n */\ncontract SelfKeyMain is WhitelistedRole {\n    //bytes32 constant TYPE_ERC725 = keccak256(abi.encodePacked(\"ERC725\"));\n    bytes32 constant LEDGER_KEY = keccak256(abi.encodePacked(\"DIDLedger\"));\n\n    // directory\n    mapping(bytes32 => address) public addresses;\n    //DIDLedger public ledger;\n\n    mapping(bytes32 => bytes32) public affiliateConnections;\n    mapping(bytes32 => bool) public affiliateStatus;\n    mapping(bytes32 => bool) public vendorStatus;\n\n    event RegisteredAffiliate(bytes32 id);\n    event RegisteredVendor(bytes32 id);\n    event RemovedAffiliate(bytes32 id);\n    event RemovedVendor(bytes32 id);\n    event RegisteredSelfKeyDID(bytes32 id);\n    event AddedAffiliateConnection(bytes32 user, bytes32 affiliate);\n    event RemovedAffiliateConnection(bytes32 user, bytes32 affiliate);\n    event CreatedSelfKeyDID(bytes32 id, bytes32 affiliate);\n    event SetAddress(bytes32 key, address _address);\n\n    function setAddress(bytes32 key, address _address)\n        public\n        onlyWhitelistAdmin\n    {\n        addresses[key] = _address;\n        emit SetAddress(key, _address);\n    }\n\n    function getAddress(bytes32 key)\n        public\n        view\n        returns (address)\n    {\n        return addresses[key];\n    }\n\n    function registerAffiliate(bytes32 affiliateID)\n        public\n        onlyWhitelisted\n    {\n        DIDLedger ledger = DIDLedger(getAddress(LEDGER_KEY));\n        require(ledger.getController(affiliateID) != address(0), \"DID is not registered on the ledger\");\n\n        affiliateStatus[affiliateID] = true;\n        emit RegisteredAffiliate(affiliateID);\n    }\n\n    function registerVendor(bytes32 vendorID)\n        public\n        onlyWhitelisted\n    {\n        DIDLedger ledger = DIDLedger(getAddress(LEDGER_KEY));\n        require(ledger.getController(vendorID) != address(0), \"DID is not registered on the ledger\");\n\n        vendorStatus[vendorID] = true;\n        emit RegisteredVendor(vendorID);\n    }\n\n    function addAffiliateConnection(bytes32 user, bytes32 affiliate)\n        public\n        onlyWhitelisted\n    {\n        require(affiliateStatus[affiliate], \"DID provided is not listed as affiliate\");\n        affiliateConnections[user] = affiliate;\n        emit AddedAffiliateConnection(user, affiliate);\n    }\n\n    function removeAffiliate(bytes32 affiliateID)\n        public\n        onlyWhitelisted\n    {\n        affiliateStatus[affiliateID] = false;\n        emit RemovedAffiliate(affiliateID);\n    }\n\n    function removeVendor(bytes32 vendorID)\n        public\n        onlyWhitelisted\n    {\n        vendorStatus[vendorID] = false;\n        emit RemovedVendor(vendorID);\n    }\n\n    function removeAffiliateConnection(bytes32 user)\n        public\n        onlyWhitelisted\n    {\n        bytes32 affiliate = affiliateConnections[user];\n        affiliateConnections[user] = bytes32(0);\n        emit RemovedAffiliateConnection(user, affiliate);\n    }\n\n    function createDID(bytes32 affiliateID)\n        public\n        returns (bytes32)\n    {\n        DIDLedger ledger = DIDLedger(getAddress(LEDGER_KEY));\n        bytes32 newDID = ledger.createDID(bytes32(0));\n\n        if (affiliateStatus[affiliateID] && ledger.getController(affiliateID) != address(0)) {\n            affiliateConnections[newDID] = affiliateID;\n        }\n\n        // transfer DID ownership to user\n        ledger.setController(newDID, msg.sender);\n        emit CreatedSelfKeyDID(newDID, affiliateID);\n        return newDID;\n    }\n\n    function resolveDID(bytes32 did)\n        public\n        view\n        returns (address)\n    {\n        DIDLedger ledger = DIDLedger(getAddress(LEDGER_KEY));\n        return ledger.getController(did);\n    }\n}\n",
	"sourcePath": "/home/carlos/work/dev/github/cbruguera/selfkey-main-contracts/contracts/SelfKeyMain.sol",
	"compiler": {
		"name": "solc",
		"version": "0.5.4+commit.9549d8ff.Emscripten.clang"
	},
	"schemaVersion": "3.0.9",
	"updatedAt": "2019-05-31T02:27:00.430Z",
	"devdoc": {
		"details": "Main entrypoint implementing SelfKey platform functionality",
		"methods": {},
		"title": "SelfKeyMain"
	},
	"userdoc": {
		"methods": {}
	}
}